{
  "_format": "hh-sol-artifact-1",
  "contractName": "Medium",
  "sourceName": "src/backend/contracts/Medium.sol",
  "abi": [
    {
      "inputs": [
        {
          "internalType": "string",
          "name": "name_",
          "type": "string"
        },
        {
          "internalType": "string",
          "name": "symbol_",
          "type": "string"
        },
        {
          "internalType": "uint256",
          "name": "fees_",
          "type": "uint256"
        }
      ],
      "stateMutability": "nonpayable",
      "type": "constructor"
    },
    {
      "anonymous": false,
      "inputs": [
        {
          "indexed": true,
          "internalType": "address",
          "name": "owner",
          "type": "address"
        },
        {
          "indexed": true,
          "internalType": "address",
          "name": "approved",
          "type": "address"
        },
        {
          "indexed": true,
          "internalType": "uint256",
          "name": "tokenId",
          "type": "uint256"
        }
      ],
      "name": "Approval",
      "type": "event"
    },
    {
      "anonymous": false,
      "inputs": [
        {
          "indexed": true,
          "internalType": "address",
          "name": "owner",
          "type": "address"
        },
        {
          "indexed": true,
          "internalType": "address",
          "name": "operator",
          "type": "address"
        },
        {
          "indexed": false,
          "internalType": "bool",
          "name": "approved",
          "type": "bool"
        }
      ],
      "name": "ApprovalForAll",
      "type": "event"
    },
    {
      "anonymous": false,
      "inputs": [
        {
          "indexed": true,
          "internalType": "address",
          "name": "previousOwner",
          "type": "address"
        },
        {
          "indexed": true,
          "internalType": "address",
          "name": "newOwner",
          "type": "address"
        }
      ],
      "name": "OwnershipTransferred",
      "type": "event"
    },
    {
      "anonymous": false,
      "inputs": [
        {
          "indexed": true,
          "internalType": "address",
          "name": "from",
          "type": "address"
        },
        {
          "indexed": true,
          "internalType": "address",
          "name": "to",
          "type": "address"
        },
        {
          "indexed": true,
          "internalType": "uint256",
          "name": "tokenId",
          "type": "uint256"
        }
      ],
      "name": "Transfer",
      "type": "event"
    },
    {
      "inputs": [
        {
          "internalType": "address",
          "name": "to",
          "type": "address"
        },
        {
          "internalType": "uint256",
          "name": "tokenId",
          "type": "uint256"
        }
      ],
      "name": "approve",
      "outputs": [],
      "stateMutability": "nonpayable",
      "type": "function"
    },
    {
      "inputs": [
        {
          "internalType": "address",
          "name": "owner",
          "type": "address"
        }
      ],
      "name": "balanceOf",
      "outputs": [
        {
          "internalType": "uint256",
          "name": "",
          "type": "uint256"
        }
      ],
      "stateMutability": "view",
      "type": "function"
    },
    {
      "inputs": [],
      "name": "fees",
      "outputs": [
        {
          "internalType": "uint256",
          "name": "",
          "type": "uint256"
        }
      ],
      "stateMutability": "view",
      "type": "function"
    },
    {
      "inputs": [
        {
          "internalType": "uint256",
          "name": "tokenId",
          "type": "uint256"
        }
      ],
      "name": "getApproved",
      "outputs": [
        {
          "internalType": "address",
          "name": "",
          "type": "address"
        }
      ],
      "stateMutability": "view",
      "type": "function"
    },
    {
      "inputs": [
        {
          "internalType": "address",
          "name": "owner",
          "type": "address"
        },
        {
          "internalType": "address",
          "name": "operator",
          "type": "address"
        }
      ],
      "name": "isApprovedForAll",
      "outputs": [
        {
          "internalType": "bool",
          "name": "",
          "type": "bool"
        }
      ],
      "stateMutability": "view",
      "type": "function"
    },
    {
      "inputs": [],
      "name": "name",
      "outputs": [
        {
          "internalType": "string",
          "name": "",
          "type": "string"
        }
      ],
      "stateMutability": "view",
      "type": "function"
    },
    {
      "inputs": [],
      "name": "owner",
      "outputs": [
        {
          "internalType": "address",
          "name": "",
          "type": "address"
        }
      ],
      "stateMutability": "view",
      "type": "function"
    },
    {
      "inputs": [
        {
          "internalType": "uint256",
          "name": "tokenId",
          "type": "uint256"
        }
      ],
      "name": "ownerOf",
      "outputs": [
        {
          "internalType": "address",
          "name": "",
          "type": "address"
        }
      ],
      "stateMutability": "view",
      "type": "function"
    },
    {
      "inputs": [],
      "name": "renounceOwnership",
      "outputs": [],
      "stateMutability": "nonpayable",
      "type": "function"
    },
    {
      "inputs": [
        {
          "internalType": "address",
          "name": "to",
          "type": "address"
        },
        {
          "internalType": "string",
          "name": "uri",
          "type": "string"
        }
      ],
      "name": "safeMint",
      "outputs": [],
      "stateMutability": "payable",
      "type": "function"
    },
    {
      "inputs": [
        {
          "internalType": "address",
          "name": "from",
          "type": "address"
        },
        {
          "internalType": "address",
          "name": "to",
          "type": "address"
        },
        {
          "internalType": "uint256",
          "name": "tokenId",
          "type": "uint256"
        }
      ],
      "name": "safeTransferFrom",
      "outputs": [],
      "stateMutability": "nonpayable",
      "type": "function"
    },
    {
      "inputs": [
        {
          "internalType": "address",
          "name": "from",
          "type": "address"
        },
        {
          "internalType": "address",
          "name": "to",
          "type": "address"
        },
        {
          "internalType": "uint256",
          "name": "tokenId",
          "type": "uint256"
        },
        {
          "internalType": "bytes",
          "name": "_data",
          "type": "bytes"
        }
      ],
      "name": "safeTransferFrom",
      "outputs": [],
      "stateMutability": "nonpayable",
      "type": "function"
    },
    {
      "inputs": [
        {
          "internalType": "address",
          "name": "operator",
          "type": "address"
        },
        {
          "internalType": "bool",
          "name": "approved",
          "type": "bool"
        }
      ],
      "name": "setApprovalForAll",
      "outputs": [],
      "stateMutability": "nonpayable",
      "type": "function"
    },
    {
      "inputs": [
        {
          "internalType": "bytes4",
          "name": "interfaceId",
          "type": "bytes4"
        }
      ],
      "name": "supportsInterface",
      "outputs": [
        {
          "internalType": "bool",
          "name": "",
          "type": "bool"
        }
      ],
      "stateMutability": "view",
      "type": "function"
    },
    {
      "inputs": [],
      "name": "symbol",
      "outputs": [
        {
          "internalType": "string",
          "name": "",
          "type": "string"
        }
      ],
      "stateMutability": "view",
      "type": "function"
    },
    {
      "inputs": [
        {
          "internalType": "uint256",
          "name": "tokenId",
          "type": "uint256"
        }
      ],
      "name": "tokenURI",
      "outputs": [
        {
          "internalType": "string",
          "name": "",
          "type": "string"
        }
      ],
      "stateMutability": "view",
      "type": "function"
    },
    {
      "inputs": [
        {
          "internalType": "address",
          "name": "from",
          "type": "address"
        },
        {
          "internalType": "address",
          "name": "to",
          "type": "address"
        },
        {
          "internalType": "uint256",
          "name": "tokenId",
          "type": "uint256"
        }
      ],
      "name": "transferFrom",
      "outputs": [],
      "stateMutability": "nonpayable",
      "type": "function"
    },
    {
      "inputs": [
        {
          "internalType": "address",
          "name": "newOwner",
          "type": "address"
        }
      ],
      "name": "transferOwnership",
      "outputs": [],
      "stateMutability": "nonpayable",
      "type": "function"
    }
  ],
  "bytecode": "0x60806040523480156200001157600080fd5b506040516200375e3803806200375e8339818101604052810190620000379190620003f3565b82828160009080519060200190620000519291906200016b565b5080600190805190602001906200006a9291906200016b565b5050506200008d620000816200009d60201b60201c565b620000a560201b60201c565b80600981905550505050620004f2565b600033905090565b6000600760009054906101000a900473ffffffffffffffffffffffffffffffffffffffff16905081600760006101000a81548173ffffffffffffffffffffffffffffffffffffffff021916908373ffffffffffffffffffffffffffffffffffffffff1602179055508173ffffffffffffffffffffffffffffffffffffffff168173ffffffffffffffffffffffffffffffffffffffff167f8be0079c531659141344cd1fd0a4f28419497f9722a3daafe3b4186f6b6457e060405160405180910390a35050565b8280546200017990620004bc565b90600052602060002090601f0160209004810192826200019d5760008555620001e9565b82601f10620001b857805160ff1916838001178555620001e9565b82800160010185558215620001e9579182015b82811115620001e8578251825591602001919060010190620001cb565b5b509050620001f89190620001fc565b5090565b5b8082111562000217576000816000905550600101620001fd565b5090565b6000604051905090565b600080fd5b600080fd5b600080fd5b600080fd5b6000601f19601f8301169050919050565b7f4e487b7100000000000000000000000000000000000000000000000000000000600052604160045260246000fd5b620002848262000239565b810181811067ffffffffffffffff82111715620002a657620002a56200024a565b5b80604052505050565b6000620002bb6200021b565b9050620002c9828262000279565b919050565b600067ffffffffffffffff821115620002ec57620002eb6200024a565b5b620002f78262000239565b9050602081019050919050565b60005b838110156200032457808201518184015260208101905062000307565b8381111562000334576000848401525b50505050565b6000620003516200034b84620002ce565b620002af565b90508281526020810184848401111562000370576200036f62000234565b5b6200037d84828562000304565b509392505050565b600082601f8301126200039d576200039c6200022f565b5b8151620003af8482602086016200033a565b91505092915050565b6000819050919050565b620003cd81620003b8565b8114620003d957600080fd5b50565b600081519050620003ed81620003c2565b92915050565b6000806000606084860312156200040f576200040e62000225565b5b600084015167ffffffffffffffff81111562000430576200042f6200022a565b5b6200043e8682870162000385565b935050602084015167ffffffffffffffff8111156200046257620004616200022a565b5b620004708682870162000385565b92505060406200048386828701620003dc565b9150509250925092565b7f4e487b7100000000000000000000000000000000000000000000000000000000600052602260045260246000fd5b60006002820490506001821680620004d557607f821691505b60208210811415620004ec57620004eb6200048d565b5b50919050565b61325c80620005026000396000f3fe6080604052600436106101095760003560e01c80638da5cb5b11610095578063b88d4fde11610064578063b88d4fde14610369578063c87b56dd14610392578063d204c45e146103cf578063e985e9c5146103eb578063f2fde38b1461042857610109565b80638da5cb5b146102bf57806395d89b41146102ea5780639af1d35a14610315578063a22cb4651461034057610109565b806323b872dd116100dc57806323b872dd146101dc57806342842e0e146102055780636352211e1461022e57806370a082311461026b578063715018a6146102a857610109565b806301ffc9a71461010e57806306fdde031461014b578063081812fc14610176578063095ea7b3146101b3575b600080fd5b34801561011a57600080fd5b5061013560048036038101906101309190611e54565b610451565b6040516101429190611e9c565b60405180910390f35b34801561015757600080fd5b50610160610533565b60405161016d9190611f50565b60405180910390f35b34801561018257600080fd5b5061019d60048036038101906101989190611fa8565b6105c5565b6040516101aa9190612016565b60405180910390f35b3480156101bf57600080fd5b506101da60048036038101906101d5919061205d565b61064a565b005b3480156101e857600080fd5b5061020360048036038101906101fe919061209d565b610762565b005b34801561021157600080fd5b5061022c6004803603810190610227919061209d565b6107c2565b005b34801561023a57600080fd5b5061025560048036038101906102509190611fa8565b6107e2565b6040516102629190612016565b60405180910390f35b34801561027757600080fd5b50610292600480360381019061028d91906120f0565b610894565b60405161029f919061212c565b60405180910390f35b3480156102b457600080fd5b506102bd61094c565b005b3480156102cb57600080fd5b506102d46109d4565b6040516102e19190612016565b60405180910390f35b3480156102f657600080fd5b506102ff6109fe565b60405161030c9190611f50565b60405180910390f35b34801561032157600080fd5b5061032a610a90565b604051610337919061212c565b60405180910390f35b34801561034c57600080fd5b5061036760048036038101906103629190612173565b610a96565b005b34801561037557600080fd5b50610390600480360381019061038b91906122e8565b610aac565b005b34801561039e57600080fd5b506103b960048036038101906103b49190611fa8565b610b0e565b6040516103c69190611f50565b60405180910390f35b6103e960048036038101906103e4919061240c565b610b20565b005b3480156103f757600080fd5b50610412600480360381019061040d9190612468565b610c3d565b60405161041f9190611e9c565b60405180910390f35b34801561043457600080fd5b5061044f600480360381019061044a91906120f0565b610cd1565b005b60007f80ac58cd000000000000000000000000000000000000000000000000000000007bffffffffffffffffffffffffffffffffffffffffffffffffffffffff1916827bffffffffffffffffffffffffffffffffffffffffffffffffffffffff1916148061051c57507f5b5e139f000000000000000000000000000000000000000000000000000000007bffffffffffffffffffffffffffffffffffffffffffffffffffffffff1916827bffffffffffffffffffffffffffffffffffffffffffffffffffffffff1916145b8061052c575061052b82610dc9565b5b9050919050565b606060008054610542906124d7565b80601f016020809104026020016040519081016040528092919081815260200182805461056e906124d7565b80156105bb5780601f10610590576101008083540402835291602001916105bb565b820191906000526020600020905b81548152906001019060200180831161059e57829003601f168201915b5050505050905090565b60006105d082610e33565b61060f576040517f08c379a00000000000000000000000000000000000000000000000000000000081526004016106069061257b565b60405180910390fd5b6004600083815260200190815260200160002060009054906101000a900473ffffffffffffffffffffffffffffffffffffffff169050919050565b6000610655826107e2565b90508073ffffffffffffffffffffffffffffffffffffffff168373ffffffffffffffffffffffffffffffffffffffff1614156106c6576040517f08c379a00000000000000000000000000000000000000000000000000000000081526004016106bd9061260d565b60405180910390fd5b8073ffffffffffffffffffffffffffffffffffffffff166106e5610e9f565b73ffffffffffffffffffffffffffffffffffffffff16148061071457506107138161070e610e9f565b610c3d565b5b610753576040517f08c379a000000000000000000000000000000000000000000000000000000000815260040161074a9061269f565b60405180910390fd5b61075d8383610ea7565b505050565b61077361076d610e9f565b82610f60565b6107b2576040517f08c379a00000000000000000000000000000000000000000000000000000000081526004016107a990612731565b60405180910390fd5b6107bd83838361103e565b505050565b6107dd83838360405180602001604052806000815250610aac565b505050565b6000806002600084815260200190815260200160002060009054906101000a900473ffffffffffffffffffffffffffffffffffffffff169050600073ffffffffffffffffffffffffffffffffffffffff168173ffffffffffffffffffffffffffffffffffffffff16141561088b576040517f08c379a0000000000000000000000000000000000000000000000000000000008152600401610882906127c3565b60405180910390fd5b80915050919050565b60008073ffffffffffffffffffffffffffffffffffffffff168273ffffffffffffffffffffffffffffffffffffffff161415610905576040517f08c379a00000000000000000000000000000000000000000000000000000000081526004016108fc90612855565b60405180910390fd5b600360008373ffffffffffffffffffffffffffffffffffffffff1673ffffffffffffffffffffffffffffffffffffffff168152602001908152602001600020549050919050565b610954610e9f565b73ffffffffffffffffffffffffffffffffffffffff166109726109d4565b73ffffffffffffffffffffffffffffffffffffffff16146109c8576040517f08c379a00000000000000000000000000000000000000000000000000000000081526004016109bf906128c1565b60405180910390fd5b6109d260006112a5565b565b6000600760009054906101000a900473ffffffffffffffffffffffffffffffffffffffff16905090565b606060018054610a0d906124d7565b80601f0160208091040260200160405190810160405280929190818152602001828054610a39906124d7565b8015610a865780601f10610a5b57610100808354040283529160200191610a86565b820191906000526020600020905b815481529060010190602001808311610a6957829003601f168201915b5050505050905090565b60095481565b610aa8610aa1610e9f565b838361136b565b5050565b610abd610ab7610e9f565b83610f60565b610afc576040517f08c379a0000000000000000000000000000000000000000000000000000000008152600401610af390612731565b60405180910390fd5b610b08848484846114d8565b50505050565b6060610b1982611534565b9050919050565b600954341015610b65576040517f08c379a0000000000000000000000000000000000000000000000000000000008152600401610b5c9061292d565b60405180910390fd5b610b6d6109d4565b73ffffffffffffffffffffffffffffffffffffffff166108fc6009549081150290604051600060405180830381858888f19350505050158015610bb4573d6000803e3d6000fd5b506000610bc16008611686565b9050610bcd6008611694565b610bd783826116aa565b610be181836116c8565b60004790506000811115610c37573373ffffffffffffffffffffffffffffffffffffffff166108fc479081150290604051600060405180830381858888f19350505050158015610c35573d6000803e3d6000fd5b505b50505050565b6000600560008473ffffffffffffffffffffffffffffffffffffffff1673ffffffffffffffffffffffffffffffffffffffff16815260200190815260200160002060008373ffffffffffffffffffffffffffffffffffffffff1673ffffffffffffffffffffffffffffffffffffffff16815260200190815260200160002060009054906101000a900460ff16905092915050565b610cd9610e9f565b73ffffffffffffffffffffffffffffffffffffffff16610cf76109d4565b73ffffffffffffffffffffffffffffffffffffffff1614610d4d576040517f08c379a0000000000000000000000000000000000000000000000000000000008152600401610d44906128c1565b60405180910390fd5b600073ffffffffffffffffffffffffffffffffffffffff168173ffffffffffffffffffffffffffffffffffffffff161415610dbd576040517f08c379a0000000000000000000000000000000000000000000000000000000008152600401610db4906129bf565b60405180910390fd5b610dc6816112a5565b50565b60007f01ffc9a7000000000000000000000000000000000000000000000000000000007bffffffffffffffffffffffffffffffffffffffffffffffffffffffff1916827bffffffffffffffffffffffffffffffffffffffffffffffffffffffff1916149050919050565b60008073ffffffffffffffffffffffffffffffffffffffff166002600084815260200190815260200160002060009054906101000a900473ffffffffffffffffffffffffffffffffffffffff1673ffffffffffffffffffffffffffffffffffffffff1614159050919050565b600033905090565b816004600083815260200190815260200160002060006101000a81548173ffffffffffffffffffffffffffffffffffffffff021916908373ffffffffffffffffffffffffffffffffffffffff160217905550808273ffffffffffffffffffffffffffffffffffffffff16610f1a836107e2565b73ffffffffffffffffffffffffffffffffffffffff167f8c5be1e5ebec7d5bd14f71427d1e84f3dd0314c0f7b2291e5b200ac8c7c3b92560405160405180910390a45050565b6000610f6b82610e33565b610faa576040517f08c379a0000000000000000000000000000000000000000000000000000000008152600401610fa190612a51565b60405180910390fd5b6000610fb5836107e2565b90508073ffffffffffffffffffffffffffffffffffffffff168473ffffffffffffffffffffffffffffffffffffffff161480610ff75750610ff68185610c3d565b5b8061103557508373ffffffffffffffffffffffffffffffffffffffff1661101d846105c5565b73ffffffffffffffffffffffffffffffffffffffff16145b91505092915050565b8273ffffffffffffffffffffffffffffffffffffffff1661105e826107e2565b73ffffffffffffffffffffffffffffffffffffffff16146110b4576040517f08c379a00000000000000000000000000000000000000000000000000000000081526004016110ab90612ae3565b60405180910390fd5b600073ffffffffffffffffffffffffffffffffffffffff168273ffffffffffffffffffffffffffffffffffffffff161415611124576040517f08c379a000000000000000000000000000000000000000000000000000000000815260040161111b90612b75565b60405180910390fd5b61112f83838361173c565b61113a600082610ea7565b6001600360008573ffffffffffffffffffffffffffffffffffffffff1673ffffffffffffffffffffffffffffffffffffffff168152602001908152602001600020600082825461118a9190612bc4565b925050819055506001600360008473ffffffffffffffffffffffffffffffffffffffff1673ffffffffffffffffffffffffffffffffffffffff16815260200190815260200160002060008282546111e19190612bf8565b92505081905550816002600083815260200190815260200160002060006101000a81548173ffffffffffffffffffffffffffffffffffffffff021916908373ffffffffffffffffffffffffffffffffffffffff160217905550808273ffffffffffffffffffffffffffffffffffffffff168473ffffffffffffffffffffffffffffffffffffffff167fddf252ad1be2c89b69c2b068fc378daa952ba7f163c4a11628f55a4df523b3ef60405160405180910390a46112a0838383611741565b505050565b6000600760009054906101000a900473ffffffffffffffffffffffffffffffffffffffff16905081600760006101000a81548173ffffffffffffffffffffffffffffffffffffffff021916908373ffffffffffffffffffffffffffffffffffffffff1602179055508173ffffffffffffffffffffffffffffffffffffffff168173ffffffffffffffffffffffffffffffffffffffff167f8be0079c531659141344cd1fd0a4f28419497f9722a3daafe3b4186f6b6457e060405160405180910390a35050565b8173ffffffffffffffffffffffffffffffffffffffff168373ffffffffffffffffffffffffffffffffffffffff1614156113da576040517f08c379a00000000000000000000000000000000000000000000000000000000081526004016113d190612c9a565b60405180910390fd5b80600560008573ffffffffffffffffffffffffffffffffffffffff1673ffffffffffffffffffffffffffffffffffffffff16815260200190815260200160002060008473ffffffffffffffffffffffffffffffffffffffff1673ffffffffffffffffffffffffffffffffffffffff16815260200190815260200160002060006101000a81548160ff0219169083151502179055508173ffffffffffffffffffffffffffffffffffffffff168373ffffffffffffffffffffffffffffffffffffffff167f17307eab39ab6107e8899845ad3d59bd9653f200f220920489ca2b5937696c31836040516114cb9190611e9c565b60405180910390a3505050565b6114e384848461103e565b6114ef84848484611746565b61152e576040517f08c379a000000000000000000000000000000000000000000000000000000000815260040161152590612d2c565b60405180910390fd5b50505050565b606061153f82610e33565b61157e576040517f08c379a000000000000000000000000000000000000000000000000000000000815260040161157590612dbe565b60405180910390fd5b600060066000848152602001908152602001600020805461159e906124d7565b80601f01602080910402602001604051908101604052809291908181526020018280546115ca906124d7565b80156116175780601f106115ec57610100808354040283529160200191611617565b820191906000526020600020905b8154815290600101906020018083116115fa57829003601f168201915b5050505050905060006116286118ce565b905060008151141561163e578192505050611681565b60008251111561167357808260405160200161165b929190612e1a565b60405160208183030381529060405292505050611681565b61167c846118e5565b925050505b919050565b600081600001549050919050565b6001816000016000828254019250508190555050565b6116c482826040518060200160405280600081525061198c565b5050565b6116d182610e33565b611710576040517f08c379a000000000000000000000000000000000000000000000000000000000815260040161170790612eb0565b60405180910390fd5b80600660008481526020019081526020016000209080519060200190611737929190611d45565b505050565b505050565b505050565b60006117678473ffffffffffffffffffffffffffffffffffffffff166119e7565b156118c1578373ffffffffffffffffffffffffffffffffffffffff1663150b7a02611790610e9f565b8786866040518563ffffffff1660e01b81526004016117b29493929190612f25565b6020604051808303816000875af19250505080156117ee57506040513d601f19601f820116820180604052508101906117eb9190612f86565b60015b611871573d806000811461181e576040519150601f19603f3d011682016040523d82523d6000602084013e611823565b606091505b50600081511415611869576040517f08c379a000000000000000000000000000000000000000000000000000000000815260040161186090612d2c565b60405180910390fd5b805181602001fd5b63150b7a0260e01b7bffffffffffffffffffffffffffffffffffffffffffffffffffffffff1916817bffffffffffffffffffffffffffffffffffffffffffffffffffffffff1916149150506118c6565b600190505b949350505050565b606060405180602001604052806000815250905090565b60606118f082610e33565b61192f576040517f08c379a000000000000000000000000000000000000000000000000000000000815260040161192690613025565b60405180910390fd5b60006119396118ce565b905060008151116119595760405180602001604052806000815250611984565b8061196384611a0a565b604051602001611974929190612e1a565b6040516020818303038152906040525b915050919050565b6119968383611b6b565b6119a36000848484611746565b6119e2576040517f08c379a00000000000000000000000000000000000000000000000000000000081526004016119d990612d2c565b60405180910390fd5b505050565b6000808273ffffffffffffffffffffffffffffffffffffffff163b119050919050565b60606000821415611a52576040518060400160405280600181526020017f30000000000000000000000000000000000000000000000000000000000000008152509050611b66565b600082905060005b60008214611a84578080611a6d90613045565b915050600a82611a7d91906130bd565b9150611a5a565b60008167ffffffffffffffff811115611aa057611a9f6121bd565b5b6040519080825280601f01601f191660200182016040528015611ad25781602001600182028036833780820191505090505b5090505b60008514611b5f57600182611aeb9190612bc4565b9150600a85611afa91906130ee565b6030611b069190612bf8565b60f81b818381518110611b1c57611b1b61311f565b5b60200101907effffffffffffffffffffffffffffffffffffffffffffffffffffffffffffff1916908160001a905350600a85611b5891906130bd565b9450611ad6565b8093505050505b919050565b600073ffffffffffffffffffffffffffffffffffffffff168273ffffffffffffffffffffffffffffffffffffffff161415611bdb576040517f08c379a0000000000000000000000000000000000000000000000000000000008152600401611bd29061319a565b60405180910390fd5b611be481610e33565b15611c24576040517f08c379a0000000000000000000000000000000000000000000000000000000008152600401611c1b90613206565b60405180910390fd5b611c306000838361173c565b6001600360008473ffffffffffffffffffffffffffffffffffffffff1673ffffffffffffffffffffffffffffffffffffffff1681526020019081526020016000206000828254611c809190612bf8565b92505081905550816002600083815260200190815260200160002060006101000a81548173ffffffffffffffffffffffffffffffffffffffff021916908373ffffffffffffffffffffffffffffffffffffffff160217905550808273ffffffffffffffffffffffffffffffffffffffff16600073ffffffffffffffffffffffffffffffffffffffff167fddf252ad1be2c89b69c2b068fc378daa952ba7f163c4a11628f55a4df523b3ef60405160405180910390a4611d4160008383611741565b5050565b828054611d51906124d7565b90600052602060002090601f016020900481019282611d735760008555611dba565b82601f10611d8c57805160ff1916838001178555611dba565b82800160010185558215611dba579182015b82811115611db9578251825591602001919060010190611d9e565b5b509050611dc79190611dcb565b5090565b5b80821115611de4576000816000905550600101611dcc565b5090565b6000604051905090565b600080fd5b600080fd5b60007fffffffff0000000000000000000000000000000000000000000000000000000082169050919050565b611e3181611dfc565b8114611e3c57600080fd5b50565b600081359050611e4e81611e28565b92915050565b600060208284031215611e6a57611e69611df2565b5b6000611e7884828501611e3f565b91505092915050565b60008115159050919050565b611e9681611e81565b82525050565b6000602082019050611eb16000830184611e8d565b92915050565b600081519050919050565b600082825260208201905092915050565b60005b83811015611ef1578082015181840152602081019050611ed6565b83811115611f00576000848401525b50505050565b6000601f19601f8301169050919050565b6000611f2282611eb7565b611f2c8185611ec2565b9350611f3c818560208601611ed3565b611f4581611f06565b840191505092915050565b60006020820190508181036000830152611f6a8184611f17565b905092915050565b6000819050919050565b611f8581611f72565b8114611f9057600080fd5b50565b600081359050611fa281611f7c565b92915050565b600060208284031215611fbe57611fbd611df2565b5b6000611fcc84828501611f93565b91505092915050565b600073ffffffffffffffffffffffffffffffffffffffff82169050919050565b600061200082611fd5565b9050919050565b61201081611ff5565b82525050565b600060208201905061202b6000830184612007565b92915050565b61203a81611ff5565b811461204557600080fd5b50565b60008135905061205781612031565b92915050565b6000806040838503121561207457612073611df2565b5b600061208285828601612048565b925050602061209385828601611f93565b9150509250929050565b6000806000606084860312156120b6576120b5611df2565b5b60006120c486828701612048565b93505060206120d586828701612048565b92505060406120e686828701611f93565b9150509250925092565b60006020828403121561210657612105611df2565b5b600061211484828501612048565b91505092915050565b61212681611f72565b82525050565b6000602082019050612141600083018461211d565b92915050565b61215081611e81565b811461215b57600080fd5b50565b60008135905061216d81612147565b92915050565b6000806040838503121561218a57612189611df2565b5b600061219885828601612048565b92505060206121a98582860161215e565b9150509250929050565b600080fd5b600080fd5b7f4e487b7100000000000000000000000000000000000000000000000000000000600052604160045260246000fd5b6121f582611f06565b810181811067ffffffffffffffff82111715612214576122136121bd565b5b80604052505050565b6000612227611de8565b905061223382826121ec565b919050565b600067ffffffffffffffff821115612253576122526121bd565b5b61225c82611f06565b9050602081019050919050565b82818337600083830152505050565b600061228b61228684612238565b61221d565b9050828152602081018484840111156122a7576122a66121b8565b5b6122b2848285612269565b509392505050565b600082601f8301126122cf576122ce6121b3565b5b81356122df848260208601612278565b91505092915050565b6000806000806080858703121561230257612301611df2565b5b600061231087828801612048565b945050602061232187828801612048565b935050604061233287828801611f93565b925050606085013567ffffffffffffffff81111561235357612352611df7565b5b61235f878288016122ba565b91505092959194509250565b600067ffffffffffffffff821115612386576123856121bd565b5b61238f82611f06565b9050602081019050919050565b60006123af6123aa8461236b565b61221d565b9050828152602081018484840111156123cb576123ca6121b8565b5b6123d6848285612269565b509392505050565b600082601f8301126123f3576123f26121b3565b5b813561240384826020860161239c565b91505092915050565b6000806040838503121561242357612422611df2565b5b600061243185828601612048565b925050602083013567ffffffffffffffff81111561245257612451611df7565b5b61245e858286016123de565b9150509250929050565b6000806040838503121561247f5761247e611df2565b5b600061248d85828601612048565b925050602061249e85828601612048565b9150509250929050565b7f4e487b7100000000000000000000000000000000000000000000000000000000600052602260045260246000fd5b600060028204905060018216806124ef57607f821691505b60208210811415612503576125026124a8565b5b50919050565b7f4552433732313a20617070726f76656420717565727920666f72206e6f6e657860008201527f697374656e7420746f6b656e0000000000000000000000000000000000000000602082015250565b6000612565602c83611ec2565b915061257082612509565b604082019050919050565b6000602082019050818103600083015261259481612558565b9050919050565b7f4552433732313a20617070726f76616c20746f2063757272656e74206f776e6560008201527f7200000000000000000000000000000000000000000000000000000000000000602082015250565b60006125f7602183611ec2565b91506126028261259b565b604082019050919050565b60006020820190508181036000830152612626816125ea565b9050919050565b7f4552433732313a20617070726f76652063616c6c6572206973206e6f74206f7760008201527f6e6572206e6f7220617070726f76656420666f7220616c6c0000000000000000602082015250565b6000612689603883611ec2565b91506126948261262d565b604082019050919050565b600060208201905081810360008301526126b88161267c565b9050919050565b7f4552433732313a207472616e736665722063616c6c6572206973206e6f74206f60008201527f776e6572206e6f7220617070726f766564000000000000000000000000000000602082015250565b600061271b603183611ec2565b9150612726826126bf565b604082019050919050565b6000602082019050818103600083015261274a8161270e565b9050919050565b7f4552433732313a206f776e657220717565727920666f72206e6f6e657869737460008201527f656e7420746f6b656e0000000000000000000000000000000000000000000000602082015250565b60006127ad602983611ec2565b91506127b882612751565b604082019050919050565b600060208201905081810360008301526127dc816127a0565b9050919050565b7f4552433732313a2062616c616e636520717565727920666f7220746865207a6560008201527f726f206164647265737300000000000000000000000000000000000000000000602082015250565b600061283f602a83611ec2565b915061284a826127e3565b604082019050919050565b6000602082019050818103600083015261286e81612832565b9050919050565b7f4f776e61626c653a2063616c6c6572206973206e6f7420746865206f776e6572600082015250565b60006128ab602083611ec2565b91506128b682612875565b602082019050919050565b600060208201905081810360008301526128da8161289e565b9050919050565b7f4e6f7420656e6f756768204d4154494300000000000000000000000000000000600082015250565b6000612917601083611ec2565b9150612922826128e1565b602082019050919050565b600060208201905081810360008301526129468161290a565b9050919050565b7f4f776e61626c653a206e6577206f776e657220697320746865207a65726f206160008201527f6464726573730000000000000000000000000000000000000000000000000000602082015250565b60006129a9602683611ec2565b91506129b48261294d565b604082019050919050565b600060208201905081810360008301526129d88161299c565b9050919050565b7f4552433732313a206f70657261746f7220717565727920666f72206e6f6e657860008201527f697374656e7420746f6b656e0000000000000000000000000000000000000000602082015250565b6000612a3b602c83611ec2565b9150612a46826129df565b604082019050919050565b60006020820190508181036000830152612a6a81612a2e565b9050919050565b7f4552433732313a207472616e736665722066726f6d20696e636f72726563742060008201527f6f776e6572000000000000000000000000000000000000000000000000000000602082015250565b6000612acd602583611ec2565b9150612ad882612a71565b604082019050919050565b60006020820190508181036000830152612afc81612ac0565b9050919050565b7f4552433732313a207472616e7366657220746f20746865207a65726f2061646460008201527f7265737300000000000000000000000000000000000000000000000000000000602082015250565b6000612b5f602483611ec2565b9150612b6a82612b03565b604082019050919050565b60006020820190508181036000830152612b8e81612b52565b9050919050565b7f4e487b7100000000000000000000000000000000000000000000000000000000600052601160045260246000fd5b6000612bcf82611f72565b9150612bda83611f72565b925082821015612bed57612bec612b95565b5b828203905092915050565b6000612c0382611f72565b9150612c0e83611f72565b9250827fffffffffffffffffffffffffffffffffffffffffffffffffffffffffffffffff03821115612c4357612c42612b95565b5b828201905092915050565b7f4552433732313a20617070726f766520746f2063616c6c657200000000000000600082015250565b6000612c84601983611ec2565b9150612c8f82612c4e565b602082019050919050565b60006020820190508181036000830152612cb381612c77565b9050919050565b7f4552433732313a207472616e7366657220746f206e6f6e20455243373231526560008201527f63656976657220696d706c656d656e7465720000000000000000000000000000602082015250565b6000612d16603283611ec2565b9150612d2182612cba565b604082019050919050565b60006020820190508181036000830152612d4581612d09565b9050919050565b7f45524337323155524953746f726167653a2055524920717565727920666f722060008201527f6e6f6e6578697374656e7420746f6b656e000000000000000000000000000000602082015250565b6000612da8603183611ec2565b9150612db382612d4c565b604082019050919050565b60006020820190508181036000830152612dd781612d9b565b9050919050565b600081905092915050565b6000612df482611eb7565b612dfe8185612dde565b9350612e0e818560208601611ed3565b80840191505092915050565b6000612e268285612de9565b9150612e328284612de9565b91508190509392505050565b7f45524337323155524953746f726167653a2055524920736574206f66206e6f6e60008201527f6578697374656e7420746f6b656e000000000000000000000000000000000000602082015250565b6000612e9a602e83611ec2565b9150612ea582612e3e565b604082019050919050565b60006020820190508181036000830152612ec981612e8d565b9050919050565b600081519050919050565b600082825260208201905092915050565b6000612ef782612ed0565b612f018185612edb565b9350612f11818560208601611ed3565b612f1a81611f06565b840191505092915050565b6000608082019050612f3a6000830187612007565b612f476020830186612007565b612f54604083018561211d565b8181036060830152612f668184612eec565b905095945050505050565b600081519050612f8081611e28565b92915050565b600060208284031215612f9c57612f9b611df2565b5b6000612faa84828501612f71565b91505092915050565b7f4552433732314d657461646174613a2055524920717565727920666f72206e6f60008201527f6e6578697374656e7420746f6b656e0000000000000000000000000000000000602082015250565b600061300f602f83611ec2565b915061301a82612fb3565b604082019050919050565b6000602082019050818103600083015261303e81613002565b9050919050565b600061305082611f72565b91507fffffffffffffffffffffffffffffffffffffffffffffffffffffffffffffffff82141561308357613082612b95565b5b600182019050919050565b7f4e487b7100000000000000000000000000000000000000000000000000000000600052601260045260246000fd5b60006130c882611f72565b91506130d383611f72565b9250826130e3576130e261308e565b5b828204905092915050565b60006130f982611f72565b915061310483611f72565b9250826131145761311361308e565b5b828206905092915050565b7f4e487b7100000000000000000000000000000000000000000000000000000000600052603260045260246000fd5b7f4552433732313a206d696e7420746f20746865207a65726f2061646472657373600082015250565b6000613184602083611ec2565b915061318f8261314e565b602082019050919050565b600060208201905081810360008301526131b381613177565b9050919050565b7f4552433732313a20746f6b656e20616c7265616479206d696e74656400000000600082015250565b60006131f0601c83611ec2565b91506131fb826131ba565b602082019050919050565b6000602082019050818103600083015261321f816131e3565b905091905056fea264697066735822122084e34bca77faa6b79d016c286c1dd3e00227e10194735063fee47f4cf31e82ed64736f6c634300080b0033",
  "linkReferences": {},
  "deployedLinkReferences": {}
}